:020000040800F2
:1000000000800020A90F00089D0D0008A10D000828
:10001000A50D0008A90D0008AD0D000800000000A6
:10002000000000000000000000000000B10D00080A
:10003000B50D000800000000B90D0008BD0D000856
:10004000F90F0008F90F0008F90F0008F90F000870
:10005000F90F0008F90F0008F90F0008F90F000860
:10006000F90F0008F90F0008F90F0008C10D00088A
:10007000CD0D0008F90F0008F90F0008F90F00086E
:10008000F90F000800000000F90F0008F90F000840
:10009000F90F0008D90D0008E50D0008F90F000858
:1000A000F90F0008F10D0008F90F0008F90F00081A
:1000B000F90F0008F90F0008F90F0008F90F000800
:1000C000F90F0008F90F0008F90F0008F90F0008F0
:1000D000F90F0008F90F0008FD0D0008F90F0008DE
:1000E000F90F0008F90F0008F90F0008F90F0008D0
:1000F000F90F0008F90F0008F90F000800000000D0
:1001000000000000F90F000800000000F90F0008CF
:10011000F90F000800000000F90F0008F90F0008AF
:10012000F90F0008F90F0008F90F0008F90F00088F
:10013000F90F00080000000000000000F90F00089F
:10014000F90F0008F90F000800000000000000008F
:10015000000000000000000000000000000000009F
:10016000000000000000000000000000F90F00087F
:10017000F90F00080000000000000000000000006F
:1001800000000000F90F000800000000000000005F
:10019000000000000000000000000000000000005F
:1001A0000000000000000000F90F0008F90F00082F
:1001B000F90F0008F90F0008F90F0008000000000F
:1001C00000000000F90F000800000000000000001F
:0801D000F90F0008F90F000807
:1001D8000348044B834202D0034B03B118477047CE
:1001E8000C0000200C000020000000000548064B11
:1001F8001B1AD90F01EBA301491002D0034B03B11D
:10020800184770470C0000200C0000200000000078
:1002180010B5064C237843B9FFF7DAFF044B13B146
:100228000448AFF300800123237010BD10000020A4
:1002380000000000083F000808B5044B1BB1044942
:100248000448AFF30080BDE80840CFE70000000095
:1002580014000020083F000853B94AB9002908BF14
:1002680000281CBF4FF0FF314FF0FF3000F06AB993
:10027800ADF1080C6DE904CE00F006F8DDF804E0F5
:10028800DDE9022304B070472DE9F047089D0E46CA
:1002980004460F46002B4AD194468C45B2FA82F2A6
:1002A80060D942B1C2F12003974020FA03F30CFA57
:1002B80002FC1F4394404FEA1C4E1FFA8CF6B7FB12
:1002C800FEF1230C0EFB117743EA074301FB06F00E
:1002D80098420AD91CEB030301F1FF3780F015811E
:1002E800984240F21281023963441B1AA4B2B3FB4C
:1002F800FEF00EFB103344EA034400FB06F6A64268
:100308000AD91CEB040400F1FF3380F00081A642F7
:1003180040F2FD806444023840EA0140A41B0021F9
:100328001DB1D4400023C5E90043BDE8F0878B42E6
:1003380005D90DB1C5E9000100210846F5E7B3FA72
:1003480083F1002946D1B34202D3824200F2F580FC
:10035800841A66EB030201201746002DE5D0C5E993
:100368000047E2E7002A40F09380A1EB0C034FEA34
:100378001C471FFA8CFE0121B3FBF7F607FB16306A
:10038800230C43EA00430EFB06F0984208D91CEB05
:10039800030306F1FF3802D2984200F2D0804646A5
:1003A8001B1AA4B2B3FBF7F007FB103344EA03446B
:1003B8000EFB00FEA64508D91CEB040400F1FF3330
:1003C80002D2A64500F2B6801846A4EB0E0440EA15
:1003D8000640A5E7C1F120078B4022FA07FC4CEA4A
:1003E800030C06FA01FE20FA07F426FA07F344EA9A
:1003F8000E0400FA01F84FEA1C404FEA1449B3FB17
:10040800F0FE1FFA8CF600FB1E3349EA03430EFB8D
:1004180006F9994502FA01F20BD91CEB03030EF118
:10042800FF3A80F08580994540F28280AEF1020E55
:100438006344A3EB0909A4B2B9FBF0F300FB1399D9
:1004480044EA094403FB06F6A64208D91CEB040457
:1004580003F1FF3068D2A64266D9023B644443EAFE
:100468000E40A41BA0FB02E6B4427346B14652D329
:100478004FD05DB1B8EB030264EB090404FA07F747
:1004880022FA01F31F43CC40C5E9007400214CE770
:10049800C2F1200120FA01F30CFA02FC26FA01F15C
:1004A800964033434FEA1C471FFA8CFEB1FBF7F026
:1004B80007FB1016190C41EA064100FB0EF68E42A6
:1004C80004FA02F408D91CEB010100F1FF382DD21F
:1004D8008E422BD902386144891B9BB2B1FBF7F6D7
:1004E80007FB161143EA014306FB0EF1994208D9AE
:1004F8001CEB030306F1FF3814D2994212D9023ECD
:1005080063445B1A46EA004136E73946EDE6184689
:1005180002E7F045ADD2BEEB020366EB0C060138EC
:10052800B146A6E74646ECE7034698E74046D3E7D8
:10053800D6467EE76444023847E708460DE7023EA0
:1005480063442DE7704700BF830730B547D0541E7A
:10055800002A3ED0CAB2034601E0013C39D303F871
:10056800012B9D07F9D1032C2CD9CDB205EB05251C
:100578000F2C05EB054535D9A4F1100222F00F0C1C
:1005880003F1100EE6444FEA121C1A46C2E9005560
:10059800C2E9025510327245F8D10CF1010214F08B
:1005A8000C0F03EB021204F00F0C13D0ACF1040390
:1005B80023F003030433134442F8045B9342FBD152
:1005C8000CF003042CB1C9B21C4403F8011BA3426C
:1005D800FBD130BD64461346002CF4D1F9E703463D
:1005E8001446C0E71A46A446E0E700BF70B50F4BB3
:1005F8000F4DAB42A3EB050607D0B610002455F803
:10060800043B01349847A642F9D803F079FC094D18
:10061800094B5E1BAB424FEAA60606D0002455F8EC
:10062800043B01349847A642F9D870BD783F0008CA
:10063800783F0008783F0008803F00080023014603
:100648001A46184600F014B838B5074D074C2C1B4D
:10065800A41005D0013C55F8043D9847002CF9D169
:10066800BDE8384003F052BC843F0008803F0008D2
:1006780070B4164D2C681CB365681F2D23DC38B97F
:10068800AB1C0135656044F82310002070BC70472E
:1006980004EB850C0228CCF88820D4F888614FF048
:1006A800010202FA05F246EA0206C4F88861CCF8AB
:1006B8000831E5D1D4F88C311343C4F88C31DFE725
:1006C800034C2C60D8E74FF0FF30DFE72C00002008
:1006D80030000020134B10B5986C40F0040098646B
:1006E8009C6C82B004F004040094009C9C6C44F060
:1006F80001049C649B6C002203F0010311460193E2
:100708000B20019B00F0BCFC0B2000F0F5FC002244
:1007180011460C2000F0B4FC0C2002B0BDE81040DB
:1007280000F0EABC0010024038B51048104D002314
:10073800082201240521C0E90053C0E90233C0E9B9
:100748000E330382192384744463416141628261D8
:10075800026282620263C361C36200F09FFE00B955
:1007680038BDBDE8384000F0AFBA00BFC001002076
:100778000064004030B5044699B00021442207A81F
:10078800CDE90211CDE904110691FFF7DDFE244BF6
:1007980022689A4201D019B030BD4FF480524FF010
:1007A800007307A80792139302F0D6F9002834D1F2
:1007B8001C4B9A6D42F000729A659A6D02F00072B5
:1007C8000092009ADA6C42F00102DA64DB6C4FF4B2
:1007D800C054022503F00103CDE90245019302A9A3
:1007E8000923002400254FF090400693019ACDE993
:1007F800044501F095FA00221146152000F040FC4E
:10080800152000F079FC00221146162000F038FC73
:10081800162000F071FC19B030BD00F055FAC7E79A
:10082800006400400010024008B502680B4B9A4271
:1008380000D008BD0A4A936D23F0007393654FF406
:10084800C0514FF0904001F047FC152000F062FCC9
:10085800BDE80840162000F05DBC00BF0064004001
:100868000010024010B500228AB0CDE90422CDE97B
:1008780006221F4B0892DA6C1E4C42F02002DA6402
:10088800D96C01F0200101910199D96C0122114321
:10089800D964D96C114002910299D96C41F00201D6
:1008A800D964DB6C03F00203039320464FF408413C
:1008B800039B01F00BFD4FF400620123CDE90423F3
:1008C80004A9002201232046CDE9062301F028FAD5
:1008D8004FF400420123CDE9042304A90022002398
:1008E8002046CDE9062301F01BFA0AB010BD00BF6F
:1008F8000010024000040048F0B5114D89B00024F2
:10090800022701260022002302A92846CDE9062352
:10091800CDE90244CDE9047600F02CFF23463A469F
:1009280039460094284600F051FF224631462846B1
:1009380001F010F8284600F06BFF09B0F0BD00BFC9
:10094800C0010020184B02689A4200D07047522913
:1009580010B51CD8154C16482146522203F0A2FAAD
:100968001449154BD4F832004860E08A1880208B6F
:100978005880608B114A9880208AD880637AD4F88E
:1009880012001371D4F82E400C60106010BD522272
:1009980000210648FFF7D8FDBDE810400349044888
:1009A800522203F07FBA00BF0044004094020020A6
:1009B800F80300208C020020840200207C02002022
:1009C80008B50268074B9A4200D008BD52220021A0
:1009D8000548FFF7B9FDBDE808400349034852221E
:1009E80003F060BA0044004094020020F80300209D
:1009F80030B595B03822002106A8FFF7A5FD0124DF
:100A080000204FF48035CDE90100CDE903000590C1
:100A180001F062FC0223CDE906455522032406A80D
:100A2800CDE90D34CDE90F32CDE91133139301F03F
:100A3800CDFC08B172B6FEE7042103460F220DEB88
:100A48000100CDE90124CDE90333059301F03CFF12
:100A580008B172B6FEE715B030BD00BF2DE9804879
:100A680089B000F0C7FAFFF7C3FFFFF7FBFEFFF7F7
:100A780031FEFFF759FE00F0C5F9FFF73DFF0122EF
:100A88004FF400418148824E824CDFF80C82DFF837
:100A98000C92834F01F01AFC4FF4967000F0CCFAD8
:100AA80000224FF40061794801F010FC4FF4FA700D
:100AB80000F0C2FA7B497C48522203F0F3F97348EC
:100AC80001224FF4006101F001FC704800224FF44C
:100AD800004101F0FBFB06F1040B00254FF0080A6A
:100AE80030E0724B93E80300324686E80300122395
:100AF80021463846C4E90155C4E903A5C4E90555AA
:100B0800C4E90755236000F09BFE002840F08E8062
:100B180099E8030005223060C4E903258BF800102A
:100B28001323324621463846C4E90155C4E9055520
:100B3800C4E90755236000F083FE002847D101204F
:100B480000F07AFA5A4B93E80300324686E803002D
:100B5800112321463846C4E90155C4E903A5C4E96F
:100B68000555C4E90755236000F06AFE0028B8D08F
:100B78004146384600F0C6FED8F81430002BB0D0F5
:100B88000121384600F062FF384600F075FDFFF796
:100B9800CBFD02200123CDE9040302A90022002392
:100BA8003846CDE90623CDE9025500F0E3FD0222DF
:100BB800002311460095384600F008FE0022012166
:100BC800384600F0C7FE384600F022FE89E7414665
:100BD800384600F097FED8F81430002BAFD001212A
:100BE800384600F033FF384600F046FDFFF79CFD1D
:100BF80002220123CDE9042302A90022002338465A
:100C0800CDE90623CDE9025500F0B4FD0222002308
:100C180011460095384600F0D9FD002201213846DA
:100C280000F098FE384600F0F3FD88E74146384664
:100C380000F068FED8F81430002B3FF469AF0121AA
:100C4800384600F003FF384600F016FDFFF76CFD4C
:100C580002210123CDE90413002202A9002338460A
:100C6800CDE90623CDE9025500F084FD02220023D8
:100C780011460095384600F0A9FD002201213846AA
:100C880000F068FE384600F0C3FD41E70004004864
:100C98005002002058020020240200207C0200207C
:100CA800C001002094020020F803002084020020E4
:100CB8008C020020034B02689A4200D0704700F073
:100CC800A9B900BF002C014072B6FEE70B4B1A6EA3
:100CD80042F001021A661A6E82B002F00102009216
:100CE800009A9A6D42F080529A659B6D03F080538A
:100CF8000193019B02B001F061BB00BF00100240EC
:100D08001F4B70B51A6E1F4C42F400621A661B6EB8
:100D180088B003F4006301A90293064603A8029B66
:100D280001F0FAFE01F0E6FE174A1849A2FB00237B
:100D38009B0C013B0022C4E90013204640F2E73334
:100D48002261A260E36002F059F8054610B1284616
:100D580008B070BD204602F0E3F805460028F6D139
:100D6800192000F0C9F90F2E01D90125EFE72A460D
:100D78003146192000F084F9054B1E60E7E700BFF3
:100D880000100240E802002083DE1B43002C0140D3
:100D980008000020FEE700BFFEE700BFFEE700BF37
:100DA800FEE700BFFEE700BF704700BF704700BF07
:100DB800704700BF704700BF014800F021BB00BF6B
:100DC80098030020014800F01BBB00BF3803002037
:100DD800014800F0E1BE00BFC0010020014800F05A
:100DE800DBBE00BFC0010020014802F0D9B800BF37
:100DF800E8020020014802F03BBA00BFF8030020D7
:100E0800704700BF10B51F481F4C00234FF46121E5
:100E18000C22C0E90041C0E90233C0E90432C0E94C
:100E28000633C0E90833836202F010FF70B9154831
:100E3800002102F0B3FF88B91248002102F0F0FF48
:100E4800A0B9104802F08CFFB8B910BDFFF73CFFFD
:100E58000C48002102F0A2FF0028EDD0FFF734FF74
:100E68000848002102F0DCFF0028EAD0FFF72CFF39
:100E7800044802F075FF0028E7D0BDE81040FFF7EE
:100E880023BF00BFF803002000440040F0B504462B
:100E980099B00021442207A8CDE90211CDE9041137
:100EA8000691FFF751FB384B22689A4201D019B0DE
:100EB800F0BD022307A8079301F04EFE002859D180
:100EC800324B9A6D42F400329A659A6D02F4003200
:100ED8000092009ADA6C42F00102DA64DB6C0C26AC
:100EE80003F001030227CDE90267019302A9072352
:100EF80000264FF090400027CDE90467019A244E60
:100F0800069300F00DFF23491A220023C6E90012B8
:100F1800304680214FF44052C6E90233C6E9041333
:100F2800C6E90633326200F007F948BB1A4D1B497F
:100F3800C4F880601B22C5E900128022002310211A
:100F48002A6128464FF40052C5E90213C5E9053362
:100F5800C5E90732B46200F0EFF870B90022114613
:100F6800E5672620AC6200F08BF8262000F0C4F874
:100F780019B0F0BDFFF7A8FEA2E7FFF7A5FEEDE761
:100F8800FFF7A2FED2E700BF004400400010024075
:100F98009803002008000240380300201C0002408B
:100FA8000D488546FFF72CFF0C480D490D4A0023D4
:100FB80002E0D458C4500433C4188C42F9D30A4A06
:100FC8000A4C002301E013600432A242FBD3FFF76E
:100FD8000DFBFFF743FDFEE7008000200000002026
:100FE8000C000020843F000810000020900400201E
:100FF800FEE7000010B5032000F030F80F20FFF7DF
:101008007FFE10B10124204610BD0446FFF75EFEA6
:10101800204610BD034A0449136809680B4413604D
:10102800704700BF8C04002004000020014B1868A2
:10103800704700BF8C04002038B50446FFF7F6FF60
:10104800631C054602D0044B1B681C44FFF7EEFFE7
:10105800401BA042FAD338BD040000200749CA68E3
:1010680003024FF6FF0003F4E0630240134343F02A
:10107800BF6343F40033CB60704700BF00ED00E06E
:101088001B4BDB68C3F3022300B5C3F1070EBEF1A7
:10109800040F03F1040C28BF4FF0040EBCF1060F37
:1010A8001CD9A3F1030C4FF0FF3303FA0CF322EA27
:1010B80003024FF0FF3303FA0EF321EA030303FAA6
:1010C8000CF313431B010028DBB20ADB00F160407C
:1010D80000F5614080F800335DF804FB0022944677
:1010E800E7E7044A00F00F00024413765DF804FBBA
:1010F80000ED00E0FCEC00E0002807DB044A4109B1
:10110800012300F01F00834042F82130704700BFE0
:1011180000E100E000280CDB4309064900F01F004D
:1011280020330122824041F82320BFF34F8FBFF3C1
:101138006F8F704700E100E0002876D0F0B43C4A99
:101148000468944203465CD93A493B4A3B482144E7
:10115800A2FB01210909890002229D6883F8252044
:10116800DA68354E364FC3E9100118692A4302433D
:101178005869024398690243D8690243E0B20838C3
:10118800A6FB0060266826F4FF4C1E6A2CF0700C43
:10119800324342EA0C022260254E2A4AC0F3041068
:1011A800B44298BF3A4606F27946012404FA00F0A0
:1011B800DE64B5F5804F01EB020618659E644FEAC0
:1011C800910127D05E68F5B2013E032E42F8215006
:1011D800C7F8840024D81C4A1C482A449200013DC0
:1011E800AC400021C3E91520DC651160184A54643D
:1011F80000200122D86383F8240083F82520F0BC5E
:10120800704714490C4A14482144A2FB01210909DA
:101218008900A1E700245C6042F82140C7F88400F7
:101228000022C3E91522DA65E2E70120704700BF12
:1012380007040240F8FBFDBFCDCCCCCC0004024033
:1012480000080240200802403F8200104009024086
:1012580000090240F8FFFDBF0000024070B490F89A
:101268002440012C09D0012480F8244090F825401E
:10127800012C05D0002380F82430022070BC704770
:10128800022480F825400024C4630468C66C2568DD
:1012980025F001052560D0E914C5C6F804C01DB1C4
:1012A800D0E9166CC6F804C0466C06F01F0C01267F
:1012B80006FA0CF6D0F840C0CCF804606360836886
:1012C800102B036B0BBFA260A160E160E260BBB1B1
:1012D800236843F00E032360836C1A68D20303D596
:1012E8001A6842F480721A601DB12B6843F4807347
:1012F8002B60236843F001030020236070BC704713
:10130800236823F004032360236843F00A0323605F
:10131800E2E700BF90F82520022A034609D00422FC
:10132800C26301210022012083F8251083F82420BC
:1013380070470268596C30B4846C10681D6C20F0DA
:101348000E001060206820F480702060106820F083
:101358000100106001F01F0101228A40D3E9144105
:10136800D86C6A60446031B10A68D3E9160422F483
:1013780080720A6044600121002283F8251083F8F6
:101388002420002030BC704738B590F82530022B57
:1013980009D0012304210022C16380F8242080F8A9
:1013A8002530184638BD0368846C1968426C056C92
:1013B80021F00E011960196821F0010119602368F4
:1013C800C16C23F48073236002F01F020123934051
:1013D800D0E914426B604C6032B11368D0E916143E
:1013E80023F4807313604C60836B0121002280F822
:1013F800251080F8242003B19847002038BD00BF8D
:1014080070B4436C066C056831682C6803F01F03E0
:1014180004229A400A420ED014F0040F0BD02B6815
:101428009B0603D42B6823F004032B60036B7260C4
:10143800CBB170BC184702229A400A4215D014F06A
:10144800020F12D02B68990606D42B6823F00A03E2
:101458002B60012380F82530C36A7260002180F870
:101468002410002BE5D170BC704708229A400A422C
:10147800F9D02207F7D52A68416B22F00E022A60BC
:10148800012202FA03F300247360C26380F8244047
:1014980080F825200029E6D070BC0847002800F015
:1014A800D98038B590F85C30044603F0FF02002B71
:1014B80071D02268936923F010039361FFF7B6FD9A
:1014C800054604E0FFF7B2FD401B0A285AD82368F6
:1014D8009A691107F6D49A6942F001029A61FFF7F6
:1014E800A5FD054604E0FFF7A1FD401B0A2849D8E1
:1014F80023689A69D207F6D59A69594942F00202D7
:101508008B429A6100F0A180227C012A9A690CBF63
:1015180022F0400242F040029A61627C012A9A69F4
:101528000CBF42F4804222F480429A61A27C012AD4
:101538009A690CBF22F4805242F480529A619A69E7
:10154800A068E16822F4407202439A619A6922F025
:10155800A4029A611A69012922F010021A611FD0A7
:1015680011B302299A6977D042F080029A611A6908
:10157800032942F010021A6116D19A6942F020023A
:101588009A6111E0236E032243F00103236684F875
:101598005C20012038BD80F85D20FFF7EBF888E774
:1015A8009A6942F004029A61D4E90612013A0139B3
:1015B800120242EA4162216A01390A43616901392A
:1015C80042EA0142B0F5407FDA610ED1D4E90B025C
:1015D800A16A013A01381201013942EA00220A439C
:1015E800616A013942EA0142DA60D3F8C020E06B4F
:1015F800616BA56B0243C3F8C020D3F8802019485B
:10160800206422F4F81242EA0142C3F88020D3F899
:1016180080201549616422F0706242EA0562C3F8CD
:101628008020124B124A4031C4E91213F033C4E946
:10163800142300214FF45472FEF786FF0020012383
:10164800206684F85C30A06538BD0A4A6168C2F833
:10165800001559E70120704742F020029A61A3E77C
:101668000064004000A4004070A4004088A5004029
:1016780060A6004000600040002847D010B590F8F0
:101688005C200368022A04462FD19A6942F00102BD
:101698009A619A69D0073BD49A69D10738D49A6974
:1016A800D20735D49A69D00732D49A69D1072FD492
:1016B8009A69D2072CD49A69D00729D49A69D10794
:1016C80026D49A69D20723D49A69D00720D49A6974
:1016D800D1071DD49A69D2071AD4226E032142F089
:1016E8000102226684F85C1003E0026E42F00802F0
:1016F8000266DA6D22F003022046DA65FFF794F8F5
:101708000023236684F85C30184610BD012070471A
:101718009A6922F010029A619A69100720D59A698D
:1017280011071DD59A6912071AD59A69100717D596
:101738009A69110714D59A69120711D59A69100781
:101748000ED59A6911070BD59A69120708D59A69B7
:10175800100705D59A69110702D59A691207BCD4F2
:101768009A69002042F0020201219A61A06584F87A
:101778005C10BEE790F85C20013A012A034605D9BF
:10178800026E42F0020201201A66704770B48A683D
:101798004869D1E90354D1E90061920756B942EA90
:1017A800C56202431B6C42EA0442002070BC43F845
:1017B800212070475B6C44EA457443F8314003EBE1
:1017C800C1031043586070BC00207047844690F8ED
:1017D8005C00012807D0DCF8603043F004030120E6
:1017E800CCF86030704710B40198DCF8004040EA4B
:1017F8004303D4F8800043EA820242EA011120F050
:101808003F030B43C4F88030002010BC704700BF72
:1018180090F85C20012A034605D0026E42F00402CB
:1018280001201A6670470068022283F85C208269EA
:10183800002122F00102826108461966704700BF44
:10184800F0B590F85C30022B86460BD10568D5F8C8
:10185800C43013F4001C0BD0036E43F4007303660A
:101868000120F0BD036E43F0080303660120F0BDBC
:10187800D5F8C4604B680F6988680C68C6F30146E0
:10188800002B37D1074347EA8447D1E906030343CE
:101898004869CC680343086A43EA006343EA04439F
:1018A800DEF8540006EBC60440F8347000EBC400C0
:1018B800134C4360CB68E35CA3B19378D7781B04DF
:1018C80043EA076317783B43577843EA07230CEB4F
:1018D80000070CF1040CBB60CB68E35C9C4502F18B
:1018E8000402EAD30123B340C5F8CC300020CEF877
:1018F8005830F0BD2743074347F08047C5E700BF8E
:10190800383F000803685B6C10B4C3F3022203F08D
:101918000704C1E9004203F01804C3F34012C1E907
:101928000242C3F38014C3F3C012C1E90442C3F3F3
:10193800C024C3F30032C1E90642C3F34034C3F301
:101948008032C3F30643C1E90842002010BC8B6211
:10195800704700BF034690F85C000138012805D99C
:101968001A6E42F0020201201A6670471B6870B4B2
:1019780011F00705986D01F0380409D0C60707D49F
:10198800DD6D45F00105DD6554B184072FD407E00E
:1019980004B386071ED4DE6D46F00106DE6525BB5E
:1019A80011F4E07F01D0460721D411F4F05F01D093
:1019B80005071CD411F4604F01D0C40617D411F4E4
:1019C800403F01D0860612D411F47C0F13D045068F
:1019D8000DD410E011F4E07F21D046071FD4DE6D4E
:1019E80046F00106DE65002DCED0C507CCD5D86DF2
:1019F80040F00200D8650C0604D5D3F8DC0010438B
:101A0800C3F8DC00C80504D5D3F8E0000243C3F8E6
:101A1800E0205A6D0A43002070BC5A65704711F4E3
:101A2800F05F01D00607DAD511F4604F01D0C60681
:101A3800D5D511F4403F01D08606D0D511F47C0FDE
:101A4800D1D04606CBD5002D9ED0CEE790F85C20AD
:101A5800013A012A034605D9026E42F0020201202A
:101A68001A6670470268536D080623EA010330B40A
:101A7800536544BF0023C2F8DC30CB0544BF0023C4
:101A8800C2F8E030536D916D13F0070419D113F0CB
:101A9800380047D08D0726D513F4E07F60D113F4C2
:101AA800F05F01D00D0704D513F4604F43D0CD0685
:101AB80041D4002C4FD1B0B18C0714D5002030BCD4
:101AC800704711F0010503F03800F4D010B111F09F
:101AD800020FF3D013F4E07FE1D011F0040FDED150
:101AE800002DEBD1E7E703F4E075C5B913F4F05F17
:101AF80001D00D07E2D413F4604F01D0CC06DDD439
:101B080013F4403F01D08806D8D413F47C0F01D0D9
:101B18004B06D3D4D36D23F00203D365CEE7480731
:101B2800CCD4E3E713F4E075B9D011F0040FB6D1C3
:101B3800002DF4D1DAE713F4403F01D08D06B8D573
:101B480013F47C0F01D04D06B3D5D56D25F00105F2
:101B5800D565002CAFD001F00105002DAED1AAE764
:101B68004D079CD40028A7D1BDE700BF704700BF30
:101B7800704700BF704700BF704700BF704700BF85
:101B8800704700BF704700BF704700BF704700BF75
:101B9800704700BF704700BF2DE9F84F03681A6D02
:101BA800596D02EA010A1A6D596D02EA01091A6DA6
:101BB800596D1E6D02EA01085A6D1F6D16405A6D67
:101BC800D3F854B01D6D1740690604460AF4E05A6C
:101BD80009F0070908F0380806F4710607F46027C9
:101BE80002D51BF0400F72D1EA0502D51BF4807FA5
:101BF8005DD1BAF1000F4AD1B9F1000F35D1B8F172
:101C0800000F3CD1AB0502D51BF4007F74D1280628
:101C180002D51BF0800F77D1A90402D51BF4005F11
:101C28005AD12A0402D51BF4004F5DD16B040AD5A2
:101C38001BF4804F07D023684FF480421A65236E47
:101C480043F0800323664FB926B123681E65236ECF
:101C580033432366236E2BBBBDE8F88F23683946D0
:101C68001F652046FFF796FFEEE723684946C3F84D
:101C780050902046FFF77CFFB8F1000FC2D02368D0
:101C88004146C3F850802046FFF774FFBAE723683F
:101C98005146C3F850A02046FFF768FFB9F1000F7E
:101CA800ADD0E2E72046FFF773FFBDE8F88F236861
:101CB800D3F8D810D3F8E0204FF48070186511409D
:101CC8002046FFF75DFFBAF1000F95D0DFE740220D
:101CD8001A65FFF75BFF87E723684FF400521A6520
:101CE8002046FFF74FFF9CE723684FF400421A6530
:101CF8002046FFF749FF99E723684FF400721A65F9
:101D08002046FFF739FF82E72368D3F8D410D3F8C9
:101D1800DC208020186511402046FFF72FFF7BE765
:101D28000B68002B00F0A6812DE9F04FB0F1904F21
:101D380085B04FF000024FF0010B00F0DC80DFF8B7
:101D480038E30BFA02FC1CEA030A78D04D6805F068
:101D580003075400032607F1FF38A640B8F1010F26
:101D68006FEA060673D9032F40F09A8107FA04F444
:101D780007683E40344315F4403F04605FD0BF4ECF
:101D8800346E44F001043466346E04F001040394A4
:101D9800039C22F0030404F1804404F5803402F02B
:101DA8000307A668BF004FF00F0C0CFA07FC26EAE1
:101DB8000C06DFF8CCC2604500F09780DFF8C4C29B
:101DC800604500F08C80DFF8C0C2604500F04C81AF
:101DD800DFF8B8C2604500F05D81DFF8B4C2604545
:101DE8000CBF4FF0050C4FF0060C0CFA07F73E43FA
:101DF800A660DEF808406FEA0A06EF0254BF3440D6
:101E08004AEA0404CEF80840DEF80C40AF0254BF9A
:101E180034404AEA0404CEF80C40DEF80440AF032C
:101E280054BF34404AEA0404CEF80440DEF80040C7
:101E3800ED0354BF34404AEA0404CEF800400132AE
:101E480033FA02F47FF47DAF05B0BDE8F08FD0F827
:101E58000890D1F80C8009EA060908FA04F848EA5B
:101E68000908C0F80880D0F8048028EA0C08C5F3EF
:101E7800001C0CFA02FC4CEA080CC0F804C0D0F8AC
:101E88000C80D1F808C008EA06080CFA04FC4CEAF1
:101E9800080C022FC0F80CC07FF468AF4FEAD208D4
:101EA80000EB880802F0070CD8F82090CDF80090D5
:101EB800D1F810904FEA8C0C09FA0CF9CDF804907F
:101EC8004FF00F0909FA0CFCDDF8009029EA0C091B
:101ED800DDF804C04CEA090CC8F820C046E74FF00A
:101EE800020C0CFA07F73E4382E74FF0010C0CFA9C
:101EF80007F73E437CE7604E46E0032C40F0DD8068
:101F0800BC40076807EA0A073C4315F4403F0460F1
:101F180035D05A4F3C6E44F001043C663C6E04F0E8
:101F280001040394039C22F0030404F1804404F5A3
:101F3800803402F003074FF00F0EBF000EFA07F7C8
:101F4800D4F808E02EEA0707A76015F4801FB468E4
:101F58006FEA0C0740F085803C40B46015F4001F20
:101F6800F4686ED13C40F46015F4003F74686FD19A
:101F78003C407460ED03346870D43C4034600132F6
:101F880033FA02F43FF460AF0BFA02FE13EA0E0CC8
:101F9800F5D04D6857004FF0030808FA07F805F028
:101FA80003046FEA080A04F1FF38B8F1010FA4D856
:101FB800D0F80890D1F80C800AEA090908FA07F85D
:101FC80048EA0908C0F80880D0F8048028EA0E0812
:101FD800C5F3001E0EFA02FE4EEA080EC0F804E031
:101FE800D0F80C80D1F808E00AEA08080EFA07FED3
:101FF8004EEA080E022CC0F80CE081D14FEAD20E4E
:102008004FEA8E0E0EF1904E02F00708DEF820908F
:10201800CDF80090D1F810904FEA880809FA08F92D
:10202800CDF804904FF00F0909FA08F8DDF8009090
:1020380029EA0809DDF8048048EA0908CEF8208072
:102048005EE74CEA0404F46015F4003F74688FD02E
:1020580044EA0C047460ED0334688ED54CEA040439
:102068008CE744EA0C0478E74FF0030C0CFA07F706
:102078003E43BDE6704700BF000401400010024027
:102088000004004800080048000C00480010004800
:10209800001400484FF0040C0CFA07F73E43A7E67B
:1020A800D0F80C80D1F808C008EA06080CFA04FC3D
:1020B8004CEA080CC0F80CC058E64FF09048D1F82C
:1020C80008E0D8F80C900EFA07FE0AEA09094EEA69
:1020D800090EC8F80CE013E7002900F0EA80B0F117
:1020E800904F2DE9F04F4FF000034FF0010700F03B
:1020F8008280704E4FF00F094FF0030A07FA03F27F
:1021080012EA010E62D023F0030404F1804404F5BE
:102118008034DFF8A4B1D4F808C003F00305AD009B
:1021280009FA05F8584508EA0C0C16D0DFF88CB106
:10213800584556D0DFF888B1584557D0DFF884B1F4
:10214800584549D0DFF880B158450CBF4FF0050B12
:102158004FF0060B0BFA05F501E007FA05F5AC455B
:1021680013D1356825EA0E053560756825EA0E0530
:102178007560F56825EA0E05F560B56825EA0E056F
:10218800B560A56825EA0805A56004685D000AFA37
:1021980005F54FEAD30C2C4300EB8C0C046003F0DC
:1021A8000704DCF820E0A40009FA04F42EEA040489
:1021B800CCF82040C46824EA0504C460446824EAD2
:1021C80002024260826822EA05028260013331FA23
:1021D80003F293D1BDE8F08F4FF0040B0BFA05F52D
:1021E800BDE74FF0020B0BFA05F5B8E74FF0030B0C
:1021F8000BFA05F5B3E72F4E0F254FF0030C23F02C
:10220800030203F0030407FA03FE02F18042A4006C
:1022180011EA0E0802F5803205FA04F443D0D2F828
:10222800089014EA090F1CD1D6F8009029EA080989
:10223800C6F80090D6F8049029EA0809C6F8049070
:10224800D6F80C9029EA0809C6F80C90D6F8089038
:1022580029EA0808C6F80880D2F8088028EA0404A1
:10226800946002684FEA4308DC080CFA08F8A400F6
:1022780042EA080204F19044026003F00702D4F82D
:102288002090920005FA02F229EA02022262C2684C
:1022980022EA0802C260426822EA0E0242608268AC
:1022A80022EA08028260013331FA03F2A7D1BDE8BD
:1022B800F08F7047000401400004004800080048FF
:1022C800000C004800100048001400480AB1816161
:1022D80070478162704700BF354A136860B903F4DC
:1022E800C063B3F5806FD2F880301BD023F48073BD
:1022F800C2F8803000207047B0F5007F06D023F484
:10230800C06343F4806313600020704703F4C06324
:10231800B3F5806FD2F8803029D043F48073C2F8C7
:102328008030F1E723F48073C2F8803013682148C5
:10233800214923F4C06343F4007313600368322017
:1023480000FB03F35069A1FB03139B0C400503F149
:10235800010306D500E023B15169490503F1FF33B4
:10236800F9D4134B5B695B05CED50320704743F462
:102378008073C2F8803013680E480F4923F4C06395
:1023880043F4007313600368322000FB03F35069C1
:10239800A1FB03139B0C400503F10103E1D501E008
:1023A800002BDED05169490503F1FF33D9D5F7E792
:1023B800007000400000002083DE1B43024A93683F
:1023C80043F480439360704700700040002800F099
:1023D800BD812DE9F0410368D90782B0044612D5C2
:1023E800A6498A68C96802F00C020C2A00F0D0805D
:1023F800082A40F0D280A14A1268920303D5626885
:10240800002A00F037819A0722D59C4A9368D2683F
:1024180003F00C030C2B00F0F880042B40F0FA803A
:10242800964B1B685B0503D5E368002B00F02281FF
:10243800924A20695368924923F0FE4343EA0063B5
:1024480053600868FEF75CFC002840F0138123689D
:102458001A0719D56369894D002B00F0C280D5F899
:10246800943043F00103C5F89430FEF7DFFD0646CB
:1024780005E0FEF7DBFD801B022800F21781D5F886
:1024880094309B07F5D523685D0741D57B4B9A6D42
:10249800D00000F10F819A6D42F080529A659B6DD1
:1024A80003F080530193019B0125764E3368D905CB
:1024B80040F12E81A368012B00F0FE80052B00F06F
:1024C80084816E4ED6F8902022F00102C6F8902042
:1024D800D6F8902022F00402C6F89020002B40F095
:1024E800F280FEF7A3FD41F28838074605E0FEF7C3
:1024F8009DFDC01B404500F2D980D6F89030990761
:10250800F5D425B15D4A936D23F080539365236814
:102518009A0618D5A369594D002B00F0E580D5F827
:10252800983043F00103C5F89830FEF77FFD064662
:1025380005E0FEF77BFD801B022800F2B780D5F886
:1025480098309B07F5D5E369F3B14C4DAA6802F0C2
:102558000C020C2A00F04781022B2B6823F08073B1
:102568002B6000F0F580FEF761FD044605E0FEF7FC
:102578005DFD001B022800F299802B689B01F6D4B0
:10258800EA68414B1340EB60002002B0BDE8F081DF
:1025980001F0030103293FF42EAF6368B3F5803FD0
:1025A80055D0B3F5A02F00F0C480344D2A6822F42A
:1025B80080322A602A6822F480222A60002B4BD1BC
:1025C800FEF734FD064604E0FEF730FD801B642864
:1025D8006CD82B689903F7D423689A077FF538AF2E
:1025E80013E7D5F8943023F00103C5F89430FEF7CB
:1025F8001DFD064604E0FEF719FD801B022855D88C
:10260800D5F894309F07F6D43DE702F00302022A7A
:102618003FF406AFE368194D002B37D02B6843F41D
:1026280080732B60FEF702FD064604E0FEF7FEFC11
:10263800801B02283AD82B685F05F7D56B6822699A
:1026480023F0FE4343EA02636B60236800E70B4A0A
:10265800136843F480331360FEF7E8FC074E054621
:1026680004E0FEF7E3FC401B64281FD833689F038F
:10267800F7D5B1E7012002B0BDE8F08100100240B3
:102688000800002000700040FCFFEEFE2B6823F4D9
:1026980080732B60FEF7CAFC06462B6859057FF548
:1026A800D6AEFEF7C3FC801B0228F6D9032002B081
:1026B800BDE8F0810025F8E6654AD2F8903043F08D
:1026C8000103C2F89030FEF7B1FC614F064641F2B3
:1026D800883804E0FEF7AAFC801B4045E6D8D7F806
:1026E80090309B07F6D50CE7D5F8983023F0010316
:1026F800C5F89830FEF79AFC064604E0FEF796FC0B
:10270800801B0228D2D8D5F898309F07F6D41AE74C
:10271800336843F480733360FEF788FC07463368F8
:10272800DA053FF5C7AEFEF781FCC01B0228F6D9D3
:10273800BCE703F18043A3F53C331A6842F48022D6
:102748001A601A6842F480321A6085E701207047DF
:10275800FEF76CFC064604E0FEF768FC801B0228C6
:10276800A4D82B689901F7D4E9683A4B226A606AC1
:102778000B401343D4E90A1243EA012343EAC26334
:10278800D4E90C120138490843EA00130139520808
:1027980043EA4153013A43EA4263EB602B6843F052
:1027A80080732B60EB6843F08073EB60FEF73EFCB0
:1027B800274D044605E0FEF739FC001B02283FF6CA
:1027C80075AF2B689A01F6D5DEE6214BD3F8902039
:1027D80042F00402C3F89020D3F8902042F001029E
:1027E800C3F890206FE7012B3FF444AFEB68226AEF
:1027F80003F0030191427FF43DAF616A03F0F002F8
:102808000139B2EB011F7FF435AFA16A03F4FE4230
:10281800B2EB012F7FF42EAFE16A03F07842B2EBFE
:10282800C16F7FF427AF226B520803F4C001013A4D
:10283800B1EB425F7FF41EAF626B520803F0C063D6
:10284800013AB3EB426F14BF012000209DE600BFA0
:10285800001002400C809F01184B9A6802F00C028D
:10286800042A26D09A6802F00C02082A23D09A6813
:1028780002F00C020C2A01D000207047D968DA68EF
:10288800D86801F003010329C2F30312C0F306203C
:102898000CBF0B4B0B4B0132B3FBF2F303FB00F005
:1028A800064BDB68C3F3416301335B00B0FBF3F015
:1028B8007047044870470248704700BF0010024044
:1028C80000127A000024F400002800F0EE80784A14
:1028D8002DE9F843136803F00F038B420D460446B5
:1028E8000CD2136823F00F030B431360136803F033
:1028F8000F038B4202D00120BDE8F8832368DF076D
:1029080069D56768032F00F0A0806A4B022F1B6807
:1029180000F097805B05EED5FFF79EFF664B984267
:1029280040F2C080634A936823F0F00343F08003C9
:1029380093604FF080095F4EB36823F003033B4375
:10294800B360FEF773FB41F28838074604E0FEF7F0
:102958006DFBC01B404571D8B368626803F00C0377
:10296800B3EB820FF3D123689F0736D4B9F1000F78
:1029780003D0B36823F0F003B3604D4E336803F01F
:102988000F03AB4246D823685A0706D54949E06881
:102998008A6822F4E06202438A601B0707D5454A29
:1029A8002169936823F4605343EAC1039360FFF7F6
:1029B80053FF404A414C92684149C2F3031203460F
:1029C800A25C404802F01F02D3400B600068BDE8DB
:1029D800F843FEF795B99E07CFD5580704D5354972
:1029E8008A6842F4E0628A60190706D5314A93681A
:1029F80023F47C5343F4E06393602E4AA168936800
:102A08002B4E23F0F0030B439360336803F00F035E
:102A1800AB42B8D9336823F00F032B433360FEF77A
:102A280005FB41F288380746336803F00F03AB42D1
:102A3800A9D0FEF7FBFAC01B4045F5D90320BDE835
:102A4800F8839A033FF568AF55E71A4A1168880179
:102A58007FF551AFD068D168D268174E00F00300F7
:102A68000328C1F303110CBF174818480131B0FB04
:102A7800F1F11048C2F3062201FB02F2C168C1F36A
:102A8800416101314900B2FBF1F2B2420AD98268D0
:102A980012F0F00F3FF446AF990703D5A368002B57
:102AA8003FF440AF4FF0000945E70120704700BFF1
:102AB800002002400010024000B4C404283F00086F
:102AC800000000200800002000127A000024F40012
:102AD800054B064A9B680649C3F302230868D35C82
:102AE80003F01F03D840704700100240203F000841
:102AF80000000020054B064A9B680649C3F3C22321
:102B08000868D35C03F01F03D840704700100240E8
:102B1800203F0008000000200D4B0F2202609A6839
:102B280002F0030242609A6802F0F00282609A683A
:102B380002F4E062C2609B68DB0810B403F4E0634F
:102B4800044C0361236810BC03F00F030B6070474B
:102B580000100240002002402DE9F04103680446BD
:102B680013F4002082B052D0A14B9A6DD50040F1E9
:102B7800088100279F4D2B6843F480732B60FEF774
:102B880055FA064605E0FEF751FA831B022B00F2C0
:102B980003812B68D805F6D5954D226CD5F8903071
:102BA80013F4407326D0934224D0D5F89010D5F86A
:102BB800903043F48033C5F89030D5F8903023F442
:102BC8008033C5F8903021F44073C907C5F89030B8
:102BD80010D5FEF72BFA41F28838064605E0FEF7D5
:102BE80025FA801B404500F2D780D5F890309B0726
:102BF800F5D5226C7E49D1F8903023F44073134305
:102C0800C1F8903023680020002F40F0CA80DE070A
:102C180008D577496568D1F8882022F003022A434D
:102C2800C1F888209D0708D57149A568D1F8882082
:102C380022F00C022A43C1F88820590708D56C49AC
:102C4800E568D1F8882022F030022A43C1F88820AC
:102C58001A0708D566492569D1F8882022F0C002EC
:102C68002A43C1F888209F0608D561496569D1F8CB
:102C7800882022F440622A43C1F888205E0608D5DD
:102C88005B49A569D1F8882022F440522A43C1F84B
:102C980088201D0608D55649E569D1F8882022F410
:102CA80040422A43C1F88820D90508D55049256AE9
:102CB800D1F8882022F440322A43C1F888209A05A6
:102CC80008D54B49656AD1F8882022F440222A4366
:102CD800C1F888205F050BD54549A56AD1F8882039
:102CE80022F440122A43B5F5801FC1F888205ED02F
:102CF8001E050BD53E49E56AD1F8882022F440022A
:102D08002A43B5F5800FC1F8882055D0DD040BD5CE
:102D18003749256BD1F8882022F040722A43B5F153
:102D2800807FC1F888204CD099040BD53049656B59
:102D3800D1F8882022F040622A43B5F1006FC1F82B
:102D4800882043D05A040BD52949A56BD1F888208F
:102D580022F040622A43B5F1006FC1F888203AD0CA
:102D68001B040BD5224AE16BD2F8883023F040537C
:102D78000B43B1F1805FC2F8883031D002B0BDE8B2
:102D8800F0819A6D42F080529A659B6D03F08053F2
:102D98000193019B0127EDE623680320002F3FF4F0
:102DA80036AF13498A6D22F080528A652FE7CA68C8
:102DB80042F48012CA609BE7CA6842F48012CA6073
:102DC800A4E7CA6842F48012CA60ADE7CA6842F450
:102DD8008012CA60B6E7CA6842F48012CA60BFE7C8
:102DE800D36843F48033D36002B0BDE8F08100BFFC
:102DF8000010024000700040704700BF002800F03B
:102E0800888038B590F83D30044603F0FF02002B67
:102E180074D022684049022384F83D308A421368FE
:102E280023D0B2F1804F57D0A1F594318A4253D0C4
:102E380001F580618A424FD001F596318A4214D05B
:102E480036498A425FD001F580618A425BD001F53C
:102E580080618A4257D0A5696168E06823F08003E1
:102E68002B431360D062916212E0A068216923F0BD
:102E78007003034323F440730B43A16923F08003D9
:102E88000B431360E368D3626368936263691363F7
:102E9800012353611369DB0703D5136923F0010389
:102EA8001361012384F8483084F83E3084F83F30B9
:102EB80084F8403084F8413084F8423084F8433054
:102EC80084F8443084F8453084F8463084F8473034
:102ED80084F83D30002038BDA168206923F07003D4
:102EE8000B4323F44073A169034323F08003E06894
:102EF8000B4361681360D0629162C9E780F83C2097
:102F0800FFF77AFF85E72069A16923F4407303433B
:102F1800B4E70120704700BF002C01400040014089
:102F280090F83D30012B22D103681649022280F81F
:102F38003D20DA688B4242F00102DA6019D0B3F121
:102F4800804F16D0104A934213D002F58062934204
:102F58000FD002F5963293420BD002F540629342AD
:102F680007D01A6842F001021A6000207047012059
:102F780070479968054A0A40062AF6D0B2F5803F9C
:102F8800EFD1F2E7002C01400004004007000100E7
:102F9800704700BF704700BF704700BF704700BF51
:102FA800036870B5DE681C69A207054601D5B1073C
:102FB80068D4630701D5700754D4210701D53207B7
:102FC8003ED4E00601D5F10626D4E20701D5F30781
:102FD8007AD414F4025F62D030067DD4600602D53C
:102FE800710600F18480A20602D5B30600F187803D
:102FF800E00202D5F10200F18A80A20202D5B302F2
:1030080000F18D80600202D5710200F190802202E9
:1030180001D533024FD470BD2B686FF010021A61CE
:1030280008222A77DB6913F4407F284640F096800F
:10303800FFF7AEFF2846FFF7AFFF00232B77C4E763
:103048002B686FF008021A6104222A77DB699B0754
:10305800284674D1FFF79CFF2846FFF79DFF002301
:103068002B77AEE72B686FF004021A6102222A77E9
:103078009B6913F4407F284664D0FFF78BFF002339
:103088002B779AE76FF002021A61012202779B6997
:103098009A075DD0FFF77EFF00232B7789E7E205CB
:1030A8009CD533069AD52B686FF480721A6128462E
:1030B80000F05CF892E72B686FF4000228461A616A
:1030C800BDE8704000F05AB82B686FF001021A6131
:1030D8002846FDF7EFFD7CE72B686FF402521A6172
:1030E800284600F041F8E1057FF578AFDBE72B686B
:1030F8006FF040021A612846FFF750FF73E72B680C
:103108006FF020021A61284600F02CF870E72B684F
:103118006FF480121A61284600F02AF86DE72B68D0
:103128006FF400121A61284600F024F86AE72B6849
:103138006FF480021A61284600F01EF867E7FFF76F
:1031480029FF8CE7FFF724FF2846FFF725FF96E7BE
:10315800FFF71EFF2846FFF71FFF9DE7FFF71AFF3F
:103168006BE700BF704700BF704700BF704700BFE4
:10317800704700BF704700BF704700BF704700BF6F
:10318800704700BF704700BF704700BF806A036880
:10319800D0F8881010B5D0F88C409A68120601D57E
:1031A80021290DD09A68520601D5222C23D0D0F8B7
:1031B800903043F01003C0F89030FDF701FC10BDCB
:1031C8000022A0F8562053E8002F22F0C00243E85E
:1031D80000210029F7D103F1080252E8002F22F458
:1031E800000203F1080C4CE800210029F3D1202249
:1031F800C0F88820D6E70022A0F85E2053E8002F08
:1032080022F4907243E800210029F7D1134C03F10E
:10321800080252E8002F224003F1080C4CE8002174
:103228000029F4D1C26E012A06D000232022C0F85A
:103238008C204367C366BAE753E8002F22F01002D8
:1032480043E800210029F0D053E8002F22F01002B3
:1032580043E800210029EFD1E7E700BFFEFFFFEFB9
:1032680008B5806A0023A0F85E30FDF7A9FB08BD09
:103278000368DA6940F60F0C12EA0C0F70B51D6886
:103288009968044645D1960607D505F0200C01F04B
:1032980080565CEA060C40F0F780E06E012800F0EA
:1032A800CB80D0021DD4100606D501F4000105F02C
:1032B8008000084340F0EF8051061CD56E061AD5F1
:1032C80053E8002F22F0400243E800210029F7D1FB
:1032D80020220023C4F88820A3672046FFF750FF68
:1032E80070BD4E02DFD54FF4801220461A62BDE849
:1032F800704000F02FBD100202D5690000F109816D
:10330800D301EDD5002DEBDA2046BDE8704000F082
:1033180023BDB848084040F0F180B74E3542BCD0D4
:10332800D6071AD5EE0540F1CF8001261E62D4F8E3
:10333800906046F00106C4F89060960740F1C78097
:10334800CE070AD502261E62D4F8906046F004061D
:10335800C4F89060560700F1C08016070BD505F039
:103368002006064307D008201862D4F8900040F0E1
:103378000800C4F8900010050AD56E0108D54FF46E
:1033880000601862D4F8900040F02000C4F8900063
:10339800D4F890000028A3D0900606D505F02005A3
:1033A80001F080510D4340F0A180D4F890109A6844
:1033B80001F0280102F0400252EA010500F0DF8026
:1033C80053E8002F22F4907243E800210029F7D136
:1033D8008A4803F1080252E8002F024003F1080569
:1033E80045E800210029F4D1E26E012A5BD00022D1
:1033F8002021C4F88C10E266996862674A0640F199
:10340800848003F1080252E8002F22F0400203F101
:10341800080040E800210029F3D1D4F880000028F2
:1034280073D0774B8363FDF7AFFF00283FF458AFA5
:10343800D4F88000836B2BE0D6067FF532AFE80620
:103448007FF52FAF10221A629968B4F85C204906FC
:1034580040F19B80D4F880000568696889B200292A
:1034680000F0D080914280F0CD80A4F85E102968E9
:103478008E0653D502232367B4F85E10511A2046EE
:1034880089B2FDF75FFA70BD436F002B3FF428AF98
:10349800BDE870401847A36F002B3FF421AF2046CA
:1034A800BDE87040184753E8002F22F0100243E8A7
:1034B800002100299BD053E8002F22F0100243E896
:1034C80000210029EFD192E796073FF546AF56074E
:1034D8007FF543AFCE077FF540AF04261E62D4F8D0
:1034E800906046F00206C4F8906036E7626F002AE2
:1034F8003FF45BAF20469047236856E7D6077FF531
:103508001CAFEE057FF519AF0FE72046FDF758FA17
:1035180070BD2046BDE8704000F020BC53E8002F85
:1035280022F4807243E800210029F7D103F1080250
:1035380052E8002F22F0010203F1080545E80021B6
:103548000029F3D103F1080252E8002F22F04002CB
:1035580003F1080545E800210029F3D12022C4F829
:103568008C20E16653E8002F22F0100243E8002186
:103578000029F7D1FDF7CEFEB4F85C207AE72046A3
:10358800FDF71EFAC4F8905070BDB4F85E00B4F8A8
:103598005E1089B280B200293FF4A2AE121A91B22D
:1035A80000293FF49DAE53E8002F22F4907243E8BF
:1035B80000200028F7D1114D03F1080252E8002F2E
:1035C8002A4003F1080646E800200028F4D120220A
:1035D800C4F88C206067E06653E8002F22F01002E0
:1035E80043E800200028F7D1022323672046FDF78F
:1035F800A9F970BD0100001020010004FEFFFFEFD3
:103608006932000891427FF46BAE2B689D06EBD4BB
:1036180070BD00BF806A08B501230367C36E012B24
:1036280002D0FFF7B1FD08BDB0F85C104908FDF7FE
:1036380089F908BD08B50368806A1A6812F0200283
:1036480028D10368A0F85E2053E8002F22F4807286
:1036580043E800210029F7D103F1080252E8002FBE
:1036680022F0010203F1080C4CE800210029F3D1F3
:1036780003F1080252E8002F22F0400203F1080C7F
:103688004CE800210029F3D12022C0F88C20C26E1A
:10369800012A07D000230367C36E012B13D0FFF75D
:1036A80071FD08BD53E8002F22F0100243E8002105
:1036B8000029EFD053E8002F22F0100243E8002140
:1036C8000029EFD1E6E7B0F85C10FDF73BF908BD3B
:1036D80070B5044603688268006961691D68024321
:1036E8000A43E0698E49024329400A431A605A682E
:1036F800E168656A22F440520A438A495A608B425B
:103708009968A26921F06E4121F4306100F0B0801F
:10371800266A32430A439A60DA6A22F00F022A4381
:10372800DA62814A934235D0804A93420DD0804A6A
:10373800934255D07F4A934240D0012000234FF056
:103748000112C4E91D33A26670BD7B4BD3F88830E3
:1037580003F00C030C2BF0D801A252F823F000BFA1
:103768006D3800084337000843370008433700081E
:10377800DB370008433700084337000843370008A1
:103788002F3800084337000843370008433700083C
:10379800FD370008684BD3F8883003F00303022B89
:1037A80041D0032B26D0012B13D0B0F5004F00F0E9
:1037B800AC80FFF79FF9A0B3656A20E05E4BD3F8B1
:1037C800883003F0C003802B2DD000F28E80002BB0
:1037D80048D0B0F5004F00F09E80FFF73DF8EAE7CB
:1037E800554BD3F8883003F03003202B1BD0EED98B
:1037F800302BA2D1B0F5004F19D04FF400406368C8
:103808004E4A32F81510B0FBF1F04FF6EF7200EBAC
:103818005300B0FBF3F0A0F1100393428DD8236856
:10382800D86000208AE7B0F5004F4548E7D16268C4
:10383800424B33F81510B0FBF1F0530803EB40038B
:103848004FF6EF71B3FBF2F3A3F110028A423FF691
:1038580074AF23F00F02216892B2C3F342031343FB
:10386800CB60DEE7B0F5004F49D0FFF731F9A2E7AA
:1038780011439960DA6A304922F00F022A43DA626A
:10388800D1F8883003F44063B3F5006F46D02FD8E1
:10389800002B3DD0FEF7E0FF0028C2D0656A6668BD
:1038A800264B06EB460133F81520B0FBF2F399429C
:1038B8003FF643AFB3EB063F3FF63FAF0023194651
:1038C800FCF7CAFC72080302090241EA1061981861
:1038D80041F1000132460023FCF7BEFC194BA0F56C
:1038E80040729A423FF629AF99E7C02B82D024E76D
:1038F800B3F5406F7FF421AF4FF40040CFE7FFF7F7
:10390800E7F800288DD0656A91E7FFF7F3F8F8E744
:10391800FFF7DEF8C0E7FEF79FFFF2E70848BEE7CB
:10392800F369FFCF008000400038014000440040A8
:1039380000480040004C004000100240483F00088A
:103948000024F400FFFC0F00836A1A0710B406D5A0
:103958000168846B4A6822F4004222434A60DC070B
:1039680006D50168C46A4A6822F4003222434A60D4
:10397800990706D50168046B4A6822F4803222430D
:103988004A605A0706D50168446B4A6822F48022C7
:1039980022434A60DC0606D50168C46B8A6822F4B3
:1039A800805222438A60990606D50168046C8A68A9
:1039B80022F4005222438A605A0609D50168446CF1
:1039C8004A6822F480122243B4F5801F4A600AD064
:1039D8001B0606D50268C16C536823F400230B4309
:1039E800536010BC70474A68846C22F4C0022243BA
:1039F8004A60EDE738B500230446C0F89030FDF77B
:103A080015FB226813681B0705460FD4136859076E
:103A180031D400232022C4F888201846C4F88C200A
:103A2800E3662367002384F8843038BDD36998029D
:103A3800ECD40CE0196849071A4605D5D969080776
:103A48004AD4D969090575D4DB699802DED4FDF733
:103A5800EDFA431BB3F1007F2368EBD353E8002F43
:103A680022F0800243E800210029F7D12023C4F87E
:103A780088300320D6E7D3695B02CAD40DE01A6800
:103A8800500707D5DA69110700F18280DA69120553
:103A980000F1AC80DB695B02BBD4FDF7C7FA431BBE
:103AA800B3F1007F2368EAD353E8002F22F4907221
:103AB80043E800210029F7D103F1080252E8002F5A
:103AC80022F0010203F1080040E800210029F3D1A7
:103AD8002023C4F88C30CCE708221A6253E8002F60
:103AE80022F4907243E800210029F7D1564803F1E7
:103AF800080252E8002F024003F1080545E80021BA
:103B08000029F4D1E26E012A0BD0002220200821DE
:103B1800C4F88C006267E26684F88420C4F89010C8
:103B28009CE753E8002F22F0100243E80021002907
:103B3800F7D1EAE74FF400621A6253E8002F22F443
:103B4800907243E800210029F7D13F4803F10802A9
:103B580052E8002F024003F1080545E8002100293A
:103B6800F4D1E26E012A0AD000222021C4F88C1078
:103B78006267E26684F88420C4F890106EE753E820
:103B8800002F22F0100243E800210029F7D1EBE7CB
:103B980008221A6253E8002F22F4907243E80021A9
:103BA8000029F7D1284803F1080252E8002F024003
:103BB80003F1080545E800210029F4D1E26E012A45
:103BC8000BD0002220200821C4F88C006267E2662E
:103BD80084F88420C4F8901066E753E8002F22F098
:103BE800100243E800210029F7D1EAE74FF4006208
:103BF8001A6253E8002F22F4907243E8002100294A
:103C0800F7D1114803F1080252E8002F024003F1EE
:103C1800080545E800210029F4D1E26E012A0AD0FE
:103C280000222021C4F88C106267E26684F88420A0
:103C3800C4F8901038E753E8002F22F0100243E848
:103C480000210029F7D1EBE7FEFFFFEF80B3D0F8A2
:103C5800883010B5044633B32268A16A2423C4F817
:103C68008830136823F001031360C1B92046FFF7B9
:103C78002FFD012811D023685A6822F490425A6017
:103C88009A6822F02A029A601A6842F001022046D5
:103C98001A60BDE81040FFF7ADBE012010BD2046F8
:103CA800FFF752FEE2E780F88430FDF7EFF8D3E73C
:103CB8000120704738B50546134622200022C5F872
:103CC8009020C5F88C00D5F880002C68A965A5F867
:103CD8005C3068B182630A4604F124011A4CC4625C
:103CE8001A4C04631A4C4463FDF7B8FA18BB2C68E5
:103CF8002B693BB154E8003F43F4807344E8003239
:103D0800002AF7D104F1080353E8003F43F0010308
:103D180004F1080141E80032002AF3D104F1080354
:103D280053E8003F43F0400304F1080242E8003042
:103D38000028F3D138BD10222023C5F89020012097
:103D4800C5F88C3038BD00BF3D3600081D36000868
:103D580095310008704700BF704700BF704700BF2B
:103D680090F88430012B16D00268242310B4C0F8D0
:103D7800883011681468002324F0010421F00051F0
:103D880014604366116080F884302022C0F88820CF
:103D980010BC184670470220704700BF90F8842076
:103DA800012A37D003460268242030B5C3F88800BA
:103DB8001468106820F001001060906820F06040DE
:103DC8000143586E916010B391689068124DC1F329
:103DD800426C4FEA507E114911F80E0011F80C1090
:103DE80015F80EE015F80C50C000C900B0FBFEF045
:103DF800B1FBF5F1A3F868100021A3F86A002025AB
:103E0800146083F884100846C3F8885030BD012137
:103E18000846EFE702207047603F0008683F000847
:103E280090F88420012A37D003460268242030B550
:103E3800C3F888001468106820F0010010609068CA
:103E480020F060600143586E916010B391689068EB
:103E5800124DC1F3426C4FEA507E114911F80E0021
:103E680011F80C1015F80EE015F80C50C000C90038
:103E7800B0FBFEF0B1FBF5F1A3F868100021A3F840
:103E88006A002025146083F884100846C3F8885017
:103E980030BD01210846EFE702207047603F000867
:103EA800683F000870B5D0F88C60202E03D101B1AE
:103EB8001AB9012070BD022070BD0123C36600231A
:103EC80003670446FFF7F6FE0028F3D1E36E012BE3
:103ED800EFD122681023136252E8003F43F0100329
:103EE80042E800310029F7D170BD00BF024B13B181
:103EF8000248FCF7A3BB7047000000005106000809
:103F0800F8B500BFF8BC08BC9E467047F8B500BFBE
:083F1800F8BC08BC9E4670478E
:103F20000000000001020304000000000000000087
:103F3000010203040607080900010203040506073D
:103F4000080C101418203040010002000400060084
:103F500008000A000C001000200040008000000152
:103F60000804020408010101010101030701000026
:083F700020C3FF7F01000000E7
:083F7800F53E000841020008BB
:043F8000190200081A
:0C3F84000024F400010000001000000008
:0400000508000FA937
:00000001FF
